{"@oasisprotocol/sapphire-contracts/contracts/Subcall.sol":{"Subcall":{"abi":[{"inputs":[{"internalType":"uint64","name":"status","type":"uint64"},{"internalType":"string","name":"data","type":"string"}],"name":"AccountsTransferError","type":"error"},{"inputs":[{"internalType":"uint64","name":"status","type":"uint64"},{"internalType":"string","name":"data","type":"string"}],"name":"ConsensusDelegateError","type":"error"},{"inputs":[{"internalType":"uint64","name":"status","type":"uint64"},{"internalType":"string","name":"data","type":"string"}],"name":"ConsensusTakeReceiptError","type":"error"},{"inputs":[{"internalType":"uint64","name":"status","type":"uint64"},{"internalType":"string","name":"data","type":"string"}],"name":"ConsensusUndelegateError","type":"error"},{"inputs":[{"internalType":"uint64","name":"status","type":"uint64"},{"internalType":"string","name":"data","type":"string"}],"name":"ConsensusWithdrawError","type":"error"},{"inputs":[{"internalType":"uint64","name":"","type":"uint64"}],"name":"CoreCallDataPublicKeyError","type":"error"},{"inputs":[{"internalType":"uint64","name":"","type":"uint64"}],"name":"CoreCurrentEpochError","type":"error"},{"inputs":[],"name":"InvalidKey","type":"error"},{"inputs":[{"internalType":"uint256","name":"","type":"uint256"}],"name":"InvalidLength","type":"error"},{"inputs":[],"name":"InvalidMap","type":"error"},{"inputs":[],"name":"InvalidReceiptId","type":"error"},{"inputs":[{"internalType":"uint8","name":"","type":"uint8"}],"name":"InvalidUintPrefix","type":"error"},{"inputs":[{"internalType":"uint8","name":"","type":"uint8"}],"name":"InvalidUintSize","type":"error"},{"inputs":[],"name":"MissingKey","type":"error"},{"inputs":[{"internalType":"uint64","name":"receiptId","type":"uint64"}],"name":"ParseReceiptError","type":"error"},{"inputs":[],"name":"RoflOriginNotAuthorizedForApp","type":"error"},{"inputs":[],"name":"SubcallError","type":"error"},{"inputs":[],"name":"TokenNameTooLong","type":"error"},{"inputs":[],"name":"ValueOutOfRange","type":"error"},{"inputs":[{"internalType":"bytes","name":"result","type":"bytes"},{"internalType":"uint256","name":"offset","type":"uint256"}],"name":"_parseCBORUint","outputs":[{"internalType":"uint256","name":"newOffset","type":"uint256"},{"internalType":"uint256","name":"value","type":"uint256"}],"stateMutability":"pure","type":"function"},{"inputs":[{"internalType":"bytes","name":"result","type":"bytes"},{"internalType":"uint256","name":"offset","type":"uint256"}],"name":"_parseCBORUint128","outputs":[{"internalType":"uint256","name":"newOffset","type":"uint256"},{"internalType":"uint128","name":"value","type":"uint128"}],"stateMutability":"pure","type":"function"},{"inputs":[{"internalType":"bytes","name":"result","type":"bytes"},{"internalType":"uint256","name":"offset","type":"uint256"}],"name":"_parseCBORUint64","outputs":[{"internalType":"uint256","name":"newOffset","type":"uint256"},{"internalType":"uint64","name":"value","type":"uint64"}],"stateMutability":"pure","type":"function"}],"evm":{"bytecode":{"linkReferences":{},"object":"6104bc61003a600b82828239805160001a60731461002d57634e487b7160e01b600052600060045260246000fd5b30600052607381538281f3fe730000000000000000000000000000000000000000301460806040526004361061004b5760003560e01c806307099c9c146100505780630eb503ca1461008657806321d0f1e4146100ae575b600080fd5b61006361005e366004610349565b6100de565b6040805192835267ffffffffffffffff9091166020830152015b60405180910390f35b610099610094366004610349565b610126565b6040805192835260208301919091520161007d565b6100c16100bc366004610349565b6102f7565b604080519283526001600160801b0390911660208301520161007d565b60008060006100ed8585610126565b909350905067ffffffffffffffff81111561011b57604051634eb4f9fb60e01b815260040160405180910390fd5b809150509250929050565b600080600084848151811061013d5761013d6103fe565b016020015160f81c90506000601782116101695761015c85600161042a565b93505060ff1690506102f0565b8160ff166058036101ad578561017e86610443565b95508581518110610191576101916103fe565b016020015160f81c9050846101a581610443565b955050610297565b604080831690036101ed5785856101c381610443565b9650815181106101d5576101d56103fe565b0160200151604060f89190911c1860ff169050610297565b60108083169003610279578160ff1660180361020b57506001610267565b8160ff1660190361021e57506002610267565b8160ff16601a0361023157506004610267565b8160ff16601b0361024457506008610267565b60405163f32e6aa360e01b815260ff831660048201526024015b60405180910390fd5b61027260018661042a565b9450610297565b60405163873b12ed60e01b815260ff8316600482015260240161025e565b60208111156102bc5760405163c67eee4b60e01b81526004810182905260240161025e565b8585016020015192506102d081600861045c565b6102dc90610100610473565b9290921c916102eb818661042a565b935050505b9250929050565b60008060006103068585610126565b90935090506001600160801b0381111561011b57604051634eb4f9fb60e01b815260040160405180910390fd5b634e487b7160e01b600052604160045260246000fd5b6000806040838503121561035c57600080fd5b823567ffffffffffffffff8082111561037457600080fd5b818501915085601f83011261038857600080fd5b81358181111561039a5761039a610333565b604051601f8201601f19908116603f011681019083821181831017156103c2576103c2610333565b816040528281528860208487010111156103db57600080fd5b826020860160208301376000602093820184015298969091013596505050505050565b634e487b7160e01b600052603260045260246000fd5b634e487b7160e01b600052601160045260246000fd5b8082018082111561043d5761043d610414565b92915050565b60006001820161045557610455610414565b5060010190565b808202811582820484141761043d5761043d610414565b8181038181111561043d5761043d61041456fea2646970667358221220170ccae283ce67266cede162e62521d8ccac74bd743703be8a7cb7d96d64a0c864736f6c63430008140033","opcodes":"PUSH2 0x4BC PUSH2 0x3A PUSH1 0xB DUP3 DUP3 DUP3 CODECOPY DUP1 MLOAD PUSH1 0x0 BYTE PUSH1 0x73 EQ PUSH2 0x2D JUMPI PUSH4 0x4E487B71 PUSH1 0xE0 SHL PUSH1 0x0 MSTORE PUSH1 0x0 PUSH1 0x4 MSTORE PUSH1 0x24 PUSH1 0x0 REVERT JUMPDEST ADDRESS PUSH1 0x0 MSTORE PUSH1 0x73 DUP2 MSTORE8 DUP3 DUP2 RETURN INVALID PUSH20 0x0 ADDRESS EQ PUSH1 0x80 PUSH1 0x40 MSTORE PUSH1 0x4 CALLDATASIZE LT PUSH2 0x4B JUMPI PUSH1 0x0 CALLDATALOAD PUSH1 0xE0 SHR DUP1 PUSH4 0x7099C9C EQ PUSH2 0x50 JUMPI DUP1 PUSH4 0xEB503CA EQ PUSH2 0x86 JUMPI DUP1 PUSH4 0x21D0F1E4 EQ PUSH2 0xAE JUMPI JUMPDEST PUSH1 0x0 DUP1 REVERT JUMPDEST PUSH2 0x63 PUSH2 0x5E CALLDATASIZE PUSH1 0x4 PUSH2 0x349 JUMP JUMPDEST PUSH2 0xDE JUMP JUMPDEST PUSH1 0x40 DUP1 MLOAD SWAP3 DUP4 MSTORE PUSH8 0xFFFFFFFFFFFFFFFF SWAP1 SWAP2 AND PUSH1 0x20 DUP4 ADD MSTORE ADD JUMPDEST PUSH1 0x40 MLOAD DUP1 SWAP2 SUB SWAP1 RETURN JUMPDEST PUSH2 0x99 PUSH2 0x94 CALLDATASIZE PUSH1 0x4 PUSH2 0x349 JUMP JUMPDEST PUSH2 0x126 JUMP JUMPDEST PUSH1 0x40 DUP1 MLOAD SWAP3 DUP4 MSTORE PUSH1 0x20 DUP4 ADD SWAP2 SWAP1 SWAP2 MSTORE ADD PUSH2 0x7D JUMP JUMPDEST PUSH2 0xC1 PUSH2 0xBC CALLDATASIZE PUSH1 0x4 PUSH2 0x349 JUMP JUMPDEST PUSH2 0x2F7 JUMP JUMPDEST PUSH1 0x40 DUP1 MLOAD SWAP3 DUP4 MSTORE PUSH1 0x1 PUSH1 0x1 PUSH1 0x80 SHL SUB SWAP1 SWAP2 AND PUSH1 0x20 DUP4 ADD MSTORE ADD PUSH2 0x7D JUMP JUMPDEST PUSH1 0x0 DUP1 PUSH1 0x0 PUSH2 0xED DUP6 DUP6 PUSH2 0x126 JUMP JUMPDEST SWAP1 SWAP4 POP SWAP1 POP PUSH8 0xFFFFFFFFFFFFFFFF DUP2 GT ISZERO PUSH2 0x11B JUMPI PUSH1 0x40 MLOAD PUSH4 0x4EB4F9FB PUSH1 0xE0 SHL DUP2 MSTORE PUSH1 0x4 ADD PUSH1 0x40 MLOAD DUP1 SWAP2 SUB SWAP1 REVERT JUMPDEST DUP1 SWAP2 POP POP SWAP3 POP SWAP3 SWAP1 POP JUMP JUMPDEST PUSH1 0x0 DUP1 PUSH1 0x0 DUP5 DUP5 DUP2 MLOAD DUP2 LT PUSH2 0x13D JUMPI PUSH2 0x13D PUSH2 0x3FE JUMP JUMPDEST ADD PUSH1 0x20 ADD MLOAD PUSH1 0xF8 SHR SWAP1 POP PUSH1 0x0 PUSH1 0x17 DUP3 GT PUSH2 0x169 JUMPI PUSH2 0x15C DUP6 PUSH1 0x1 PUSH2 0x42A JUMP JUMPDEST SWAP4 POP POP PUSH1 0xFF AND SWAP1 POP PUSH2 0x2F0 JUMP JUMPDEST DUP2 PUSH1 0xFF AND PUSH1 0x58 SUB PUSH2 0x1AD JUMPI DUP6 PUSH2 0x17E DUP7 PUSH2 0x443 JUMP JUMPDEST SWAP6 POP DUP6 DUP2 MLOAD DUP2 LT PUSH2 0x191 JUMPI PUSH2 0x191 PUSH2 0x3FE JUMP JUMPDEST ADD PUSH1 0x20 ADD MLOAD PUSH1 0xF8 SHR SWAP1 POP DUP5 PUSH2 0x1A5 DUP2 PUSH2 0x443 JUMP JUMPDEST SWAP6 POP POP PUSH2 0x297 JUMP JUMPDEST PUSH1 0x40 DUP1 DUP4 AND SWAP1 SUB PUSH2 0x1ED JUMPI DUP6 DUP6 PUSH2 0x1C3 DUP2 PUSH2 0x443 JUMP JUMPDEST SWAP7 POP DUP2 MLOAD DUP2 LT PUSH2 0x1D5 JUMPI PUSH2 0x1D5 PUSH2 0x3FE JUMP JUMPDEST ADD PUSH1 0x20 ADD MLOAD PUSH1 0x40 PUSH1 0xF8 SWAP2 SWAP1 SWAP2 SHR XOR PUSH1 0xFF AND SWAP1 POP PUSH2 0x297 JUMP JUMPDEST PUSH1 0x10 DUP1 DUP4 AND SWAP1 SUB PUSH2 0x279 JUMPI DUP2 PUSH1 0xFF AND PUSH1 0x18 SUB PUSH2 0x20B JUMPI POP PUSH1 0x1 PUSH2 0x267 JUMP JUMPDEST DUP2 PUSH1 0xFF AND PUSH1 0x19 SUB PUSH2 0x21E JUMPI POP PUSH1 0x2 PUSH2 0x267 JUMP JUMPDEST DUP2 PUSH1 0xFF AND PUSH1 0x1A SUB PUSH2 0x231 JUMPI POP PUSH1 0x4 PUSH2 0x267 JUMP JUMPDEST DUP2 PUSH1 0xFF AND PUSH1 0x1B SUB PUSH2 0x244 JUMPI POP PUSH1 0x8 PUSH2 0x267 JUMP JUMPDEST PUSH1 0x40 MLOAD PUSH4 0xF32E6AA3 PUSH1 0xE0 SHL DUP2 MSTORE PUSH1 0xFF DUP4 AND PUSH1 0x4 DUP3 ADD MSTORE PUSH1 0x24 ADD JUMPDEST PUSH1 0x40 MLOAD DUP1 SWAP2 SUB SWAP1 REVERT JUMPDEST PUSH2 0x272 PUSH1 0x1 DUP7 PUSH2 0x42A JUMP JUMPDEST SWAP5 POP PUSH2 0x297 JUMP JUMPDEST PUSH1 0x40 MLOAD PUSH4 0x873B12ED PUSH1 0xE0 SHL DUP2 MSTORE PUSH1 0xFF DUP4 AND PUSH1 0x4 DUP3 ADD MSTORE PUSH1 0x24 ADD PUSH2 0x25E JUMP JUMPDEST PUSH1 0x20 DUP2 GT ISZERO PUSH2 0x2BC JUMPI PUSH1 0x40 MLOAD PUSH4 0xC67EEE4B PUSH1 0xE0 SHL DUP2 MSTORE PUSH1 0x4 DUP2 ADD DUP3 SWAP1 MSTORE PUSH1 0x24 ADD PUSH2 0x25E JUMP JUMPDEST DUP6 DUP6 ADD PUSH1 0x20 ADD MLOAD SWAP3 POP PUSH2 0x2D0 DUP2 PUSH1 0x8 PUSH2 0x45C JUMP JUMPDEST PUSH2 0x2DC SWAP1 PUSH2 0x100 PUSH2 0x473 JUMP JUMPDEST SWAP3 SWAP1 SWAP3 SHR SWAP2 PUSH2 0x2EB DUP2 DUP7 PUSH2 0x42A JUMP JUMPDEST SWAP4 POP POP POP JUMPDEST SWAP3 POP SWAP3 SWAP1 POP JUMP JUMPDEST PUSH1 0x0 DUP1 PUSH1 0x0 PUSH2 0x306 DUP6 DUP6 PUSH2 0x126 JUMP JUMPDEST SWAP1 SWAP4 POP SWAP1 POP PUSH1 0x1 PUSH1 0x1 PUSH1 0x80 SHL SUB DUP2 GT ISZERO PUSH2 0x11B JUMPI PUSH1 0x40 MLOAD PUSH4 0x4EB4F9FB PUSH1 0xE0 SHL DUP2 MSTORE PUSH1 0x4 ADD PUSH1 0x40 MLOAD DUP1 SWAP2 SUB SWAP1 REVERT JUMPDEST PUSH4 0x4E487B71 PUSH1 0xE0 SHL PUSH1 0x0 MSTORE PUSH1 0x41 PUSH1 0x4 MSTORE PUSH1 0x24 PUSH1 0x0 REVERT JUMPDEST PUSH1 0x0 DUP1 PUSH1 0x40 DUP4 DUP6 SUB SLT ISZERO PUSH2 0x35C JUMPI PUSH1 0x0 DUP1 REVERT JUMPDEST DUP3 CALLDATALOAD PUSH8 0xFFFFFFFFFFFFFFFF DUP1 DUP3 GT ISZERO PUSH2 0x374 JUMPI PUSH1 0x0 DUP1 REVERT JUMPDEST DUP2 DUP6 ADD SWAP2 POP DUP6 PUSH1 0x1F DUP4 ADD SLT PUSH2 0x388 JUMPI PUSH1 0x0 DUP1 REVERT JUMPDEST DUP2 CALLDATALOAD DUP2 DUP2 GT ISZERO PUSH2 0x39A JUMPI PUSH2 0x39A PUSH2 0x333 JUMP JUMPDEST PUSH1 0x40 MLOAD PUSH1 0x1F DUP3 ADD PUSH1 0x1F NOT SWAP1 DUP2 AND PUSH1 0x3F ADD AND DUP2 ADD SWAP1 DUP4 DUP3 GT DUP2 DUP4 LT OR ISZERO PUSH2 0x3C2 JUMPI PUSH2 0x3C2 PUSH2 0x333 JUMP JUMPDEST DUP2 PUSH1 0x40 MSTORE DUP3 DUP2 MSTORE DUP9 PUSH1 0x20 DUP5 DUP8 ADD ADD GT ISZERO PUSH2 0x3DB JUMPI PUSH1 0x0 DUP1 REVERT JUMPDEST DUP3 PUSH1 0x20 DUP7 ADD PUSH1 0x20 DUP4 ADD CALLDATACOPY PUSH1 0x0 PUSH1 0x20 SWAP4 DUP3 ADD DUP5 ADD MSTORE SWAP9 SWAP7 SWAP1 SWAP2 ADD CALLDATALOAD SWAP7 POP POP POP POP POP POP JUMP JUMPDEST PUSH4 0x4E487B71 PUSH1 0xE0 SHL PUSH1 0x0 MSTORE PUSH1 0x32 PUSH1 0x4 MSTORE PUSH1 0x24 PUSH1 0x0 REVERT JUMPDEST PUSH4 0x4E487B71 PUSH1 0xE0 SHL PUSH1 0x0 MSTORE PUSH1 0x11 PUSH1 0x4 MSTORE PUSH1 0x24 PUSH1 0x0 REVERT JUMPDEST DUP1 DUP3 ADD DUP1 DUP3 GT ISZERO PUSH2 0x43D JUMPI PUSH2 0x43D PUSH2 0x414 JUMP JUMPDEST SWAP3 SWAP2 POP POP JUMP JUMPDEST PUSH1 0x0 PUSH1 0x1 DUP3 ADD PUSH2 0x455 JUMPI PUSH2 0x455 PUSH2 0x414 JUMP JUMPDEST POP PUSH1 0x1 ADD SWAP1 JUMP JUMPDEST DUP1 DUP3 MUL DUP2 ISZERO DUP3 DUP3 DIV DUP5 EQ OR PUSH2 0x43D JUMPI PUSH2 0x43D PUSH2 0x414 JUMP JUMPDEST DUP2 DUP2 SUB DUP2 DUP2 GT ISZERO PUSH2 0x43D JUMPI PUSH2 0x43D PUSH2 0x414 JUMP INVALID LOG2 PUSH5 0x6970667358 0x22 SLT KECCAK256 OR 0xC 0xCA 0xE2 DUP4 0xCE PUSH8 0x266CEDE162E62521 0xD8 0xCC 0xAC PUSH21 0xBD743703BE8A7CB7D96D64A0C864736F6C63430008 EQ STOP CALLER "},"methodIdentifiers":{"_parseCBORUint(bytes,uint256)":"0eb503ca","_parseCBORUint128(bytes,uint256)":"21d0f1e4","_parseCBORUint64(bytes,uint256)":"07099c9c"}}}}}