{"contracts/Chat.sol":{"AIChat":{"abi":[{"inputs":[{"internalType":"bytes21","name":"_roflAppID","type":"bytes21"}],"stateMutability":"nonpayable","type":"constructor"},{"anonymous":false,"inputs":[{"indexed":true,"internalType":"uint256","name":"messageId","type":"uint256"},{"indexed":false,"internalType":"string","name":"reply","type":"string"}],"name":"AgentReplied","type":"event"},{"anonymous":false,"inputs":[{"indexed":true,"internalType":"address","name":"user","type":"address"},{"indexed":false,"internalType":"uint256","name":"messageId","type":"uint256"}],"name":"MessageSent","type":"event"},{"inputs":[{"internalType":"uint256","name":"messageId","type":"uint256"}],"name":"getMessage","outputs":[{"internalType":"string","name":"","type":"string"},{"internalType":"string","name":"","type":"string"},{"internalType":"string","name":"","type":"string"}],"stateMutability":"view","type":"function"},{"inputs":[],"name":"getProcessingMessages","outputs":[{"internalType":"uint256[]","name":"","type":"uint256[]"}],"stateMutability":"view","type":"function"},{"inputs":[{"internalType":"address","name":"user","type":"address"}],"name":"getUserHistory","outputs":[{"internalType":"uint256[]","name":"","type":"uint256[]"}],"stateMutability":"view","type":"function"},{"inputs":[{"internalType":"address","name":"","type":"address"},{"internalType":"uint256","name":"","type":"uint256"}],"name":"history","outputs":[{"internalType":"uint256","name":"","type":"uint256"}],"stateMutability":"view","type":"function"},{"inputs":[{"internalType":"string","name":"prompt","type":"string"},{"internalType":"string","name":"plugin","type":"string"}],"name":"processPrompt","outputs":[],"stateMutability":"nonpayable","type":"function"},{"inputs":[{"internalType":"uint256","name":"","type":"uint256"}],"name":"processingMessages","outputs":[{"internalType":"uint256","name":"","type":"uint256"}],"stateMutability":"view","type":"function"},{"inputs":[],"name":"roflAppID","outputs":[{"internalType":"bytes21","name":"","type":"bytes21"}],"stateMutability":"view","type":"function"},{"inputs":[{"internalType":"uint256","name":"messageId","type":"uint256"},{"internalType":"string","name":"reply","type":"string"}],"name":"submitAgentReply","outputs":[],"stateMutability":"nonpayable","type":"function"}],"evm":{"bytecode":{"linkReferences":{},"object":"608060405234801561001057600080fd5b50604051610d82380380610d8283398101604081905261002f9161004e565b600080546001600160a81b03191660589290921c91909117905561007f565b60006020828403121561006057600080fd5b81516001600160581b03198116811461007857600080fd5b9392505050565b610cf48061008e6000396000f3fe608060405234801561001057600080fd5b50600436106100885760003560e01c8063c44adfa81161005b578063c44adfa81461010c578063e748e78114610121578063efae93df14610134578063feb8b90f1461015e57600080fd5b80634fb3d3b11461008d5780637718f4ec146100b657806386f79edb146100d7578063baddaeb8146100f9575b600080fd5b6100a061009b366004610878565b610166565b6040516100ad919061089a565b60405180910390f35b6100c96100c43660046108de565b6101d2565b6040519081526020016100ad565b6100ea6100e5366004610908565b610203565b6040516100ad93929190610967565b6100c9610107366004610908565b610473565b61011f61011a366004610a4d565b610494565b005b61011f61012f366004610a94565b610650565b6000546101419060581b81565b6040516affffffffffffffffffffff1990911681526020016100ad565b6100a0610804565b6001600160a01b0381166000908152600360209081526040918290208054835181840281018401909452808452606093928301828280156101c657602002820191906000526020600020905b8154815260200190600101908083116101b2575b50505050509050919050565b600360205281600052604060002081815481106101ee57600080fd5b90600052602060002001600091509150505481565b606080606060018054905084106102565760405162461bcd60e51b8152602060048201526012602482015271125b9d985b1a59081b595cdcd859d948125160721b60448201526064015b60405180910390fd5b6001848154811061026957610269610aee565b90600052602060002090600402016000016001858154811061028d5761028d610aee565b9060005260206000209060040201600201600186815481106102b1576102b1610aee565b90600052602060002090600402016001018280546102ce90610b04565b80601f01602080910402602001604051908101604052809291908181526020018280546102fa90610b04565b80156103475780601f1061031c57610100808354040283529160200191610347565b820191906000526020600020905b81548152906001019060200180831161032a57829003601f168201915b5050505050925081805461035a90610b04565b80601f016020809104026020016040519081016040528092919081815260200182805461038690610b04565b80156103d35780601f106103a8576101008083540402835291602001916103d3565b820191906000526020600020905b8154815290600101906020018083116103b657829003601f168201915b505050505091508080546103e690610b04565b80601f016020809104026020016040519081016040528092919081815260200182805461041290610b04565b801561045f5780601f106104345761010080835404028352916020019161045f565b820191906000526020600020905b81548152906001019060200180831161044257829003601f168201915b505050505090509250925092509193909250565b6002818154811061048357600080fd5b600091825260209091200154905081565b60015482106104da5760405162461bcd60e51b8152602060048201526012602482015271125b9d985b1a59081b595cdcd859d948125160721b604482015260640161024d565b60405180604001604052806004815260200163446f6e6560e01b8152506001838154811061050a5761050a610aee565b906000526020600020906004020160030190816105279190610b8d565b50806001838154811061053c5761053c610aee565b906000526020600020906004020160010190816105599190610b8d565b5060005b60025481101561061357826002828154811061057b5761057b610aee565b906000526020600020015403610601576002805461059b90600190610c63565b815481106105ab576105ab610aee565b9060005260206000200154600282815481106105c9576105c9610aee565b60009182526020909120015560028054806105e6576105e6610c7c565b60019003818190600052602060002001600090559055610613565b8061060b81610c92565b91505061055d565b50817ffb74da3aa519f9bdbd6f2b6ceea081a1654b10ac18cd45077a51ed225bd89d9a826040516106449190610cab565b60405180910390a25050565b600082511180156106645750610118825111155b6106a15760405162461bcd60e51b815260206004820152600e60248201526d125b9d985b1a59081c1c9bdb5c1d60921b604482015260640161024d565b60018054604080516080810182528581528151602081810184526000808352818401929092528284018790528351808501909452600a84526950726f63657373696e6760b01b90840152606082019290925282840184559290528151909190600483027fb10e2d527612073b26eecdfd717e6a320cf44b4afac2b0732d9fcbe2b7fa0cf6019081906107339082610b8d565b50602082015160018201906107489082610b8d565b506040820151600282019061075d9082610b8d565b50606082015160038201906107729082610b8d565b5050336000818152600360209081526040808320805460018082018355918552838520018790556002805491820181559093527f405787fa12a823e0f2b7631cc41b3ba8828b3321ca811111fa75cd3aa3bb5ace90920185905590518481529192507ff94b406e4a887d40eeed920c1d145a8f1279ea71af35bffbd9862c4fb0c3fa9d910160405180910390a2505050565b6060600280548060200260200160405190810160405280929190818152602001828054801561085257602002820191906000526020600020905b81548152602001906001019080831161083e575b5050505050905090565b80356001600160a01b038116811461087357600080fd5b919050565b60006020828403121561088a57600080fd5b6108938261085c565b9392505050565b6020808252825182820181905260009190848201906040850190845b818110156108d2578351835292840192918401916001016108b6565b50909695505050505050565b600080604083850312156108f157600080fd5b6108fa8361085c565b946020939093013593505050565b60006020828403121561091a57600080fd5b5035919050565b6000815180845260005b818110156109475760208185018101518683018201520161092b565b506000602082860101526020601f19601f83011685010191505092915050565b60608152600061097a6060830186610921565b828103602084015261098c8186610921565b905082810360408401526109a08185610921565b9695505050505050565b634e487b7160e01b600052604160045260246000fd5b600082601f8301126109d157600080fd5b813567ffffffffffffffff808211156109ec576109ec6109aa565b604051601f8301601f19908116603f01168101908282118183101715610a1457610a146109aa565b81604052838152866020858801011115610a2d57600080fd5b836020870160208301376000602085830101528094505050505092915050565b60008060408385031215610a6057600080fd5b82359150602083013567ffffffffffffffff811115610a7e57600080fd5b610a8a858286016109c0565b9150509250929050565b60008060408385031215610aa757600080fd5b823567ffffffffffffffff80821115610abf57600080fd5b610acb868387016109c0565b93506020850135915080821115610ae157600080fd5b50610a8a858286016109c0565b634e487b7160e01b600052603260045260246000fd5b600181811c90821680610b1857607f821691505b602082108103610b3857634e487b7160e01b600052602260045260246000fd5b50919050565b601f821115610b8857600081815260208120601f850160051c81016020861015610b655750805b601f850160051c820191505b81811015610b8457828155600101610b71565b5050505b505050565b815167ffffffffffffffff811115610ba757610ba76109aa565b610bbb81610bb58454610b04565b84610b3e565b602080601f831160018114610bf05760008415610bd85750858301515b600019600386901b1c1916600185901b178555610b84565b600085815260208120601f198616915b82811015610c1f57888601518255948401946001909101908401610c00565b5085821015610c3d5787850151600019600388901b60f8161c191681555b5050505050600190811b01905550565b634e487b7160e01b600052601160045260246000fd5b81810381811115610c7657610c76610c4d565b92915050565b634e487b7160e01b600052603160045260246000fd5b600060018201610ca457610ca4610c4d565b5060010190565b602081526000610893602083018461092156fea2646970667358221220f730e27bfea57da6aa68e186edab34eddb9a7621b36aa057acc35738547e908764736f6c63430008140033","opcodes":"PUSH1 0x80 PUSH1 0x40 MSTORE CALLVALUE DUP1 ISZERO PUSH2 0x10 JUMPI PUSH1 0x0 DUP1 REVERT JUMPDEST POP PUSH1 0x40 MLOAD PUSH2 0xD82 CODESIZE SUB DUP1 PUSH2 0xD82 DUP4 CODECOPY DUP2 ADD PUSH1 0x40 DUP2 SWAP1 MSTORE PUSH2 0x2F SWAP2 PUSH2 0x4E JUMP JUMPDEST PUSH1 0x0 DUP1 SLOAD PUSH1 0x1 PUSH1 0x1 PUSH1 0xA8 SHL SUB NOT AND PUSH1 0x58 SWAP3 SWAP1 SWAP3 SHR SWAP2 SWAP1 SWAP2 OR SWAP1 SSTORE PUSH2 0x7F JUMP JUMPDEST PUSH1 0x0 PUSH1 0x20 DUP3 DUP5 SUB SLT ISZERO PUSH2 0x60 JUMPI PUSH1 0x0 DUP1 REVERT JUMPDEST DUP2 MLOAD PUSH1 0x1 PUSH1 0x1 PUSH1 0x58 SHL SUB NOT DUP2 AND DUP2 EQ PUSH2 0x78 JUMPI PUSH1 0x0 DUP1 REVERT JUMPDEST SWAP4 SWAP3 POP POP POP JUMP JUMPDEST PUSH2 0xCF4 DUP1 PUSH2 0x8E PUSH1 0x0 CODECOPY PUSH1 0x0 RETURN INVALID PUSH1 0x80 PUSH1 0x40 MSTORE CALLVALUE DUP1 ISZERO PUSH2 0x10 JUMPI PUSH1 0x0 DUP1 REVERT JUMPDEST POP PUSH1 0x4 CALLDATASIZE LT PUSH2 0x88 JUMPI PUSH1 0x0 CALLDATALOAD PUSH1 0xE0 SHR DUP1 PUSH4 0xC44ADFA8 GT PUSH2 0x5B JUMPI DUP1 PUSH4 0xC44ADFA8 EQ PUSH2 0x10C JUMPI DUP1 PUSH4 0xE748E781 EQ PUSH2 0x121 JUMPI DUP1 PUSH4 0xEFAE93DF EQ PUSH2 0x134 JUMPI DUP1 PUSH4 0xFEB8B90F EQ PUSH2 0x15E JUMPI PUSH1 0x0 DUP1 REVERT JUMPDEST DUP1 PUSH4 0x4FB3D3B1 EQ PUSH2 0x8D JUMPI DUP1 PUSH4 0x7718F4EC EQ PUSH2 0xB6 JUMPI DUP1 PUSH4 0x86F79EDB EQ PUSH2 0xD7 JUMPI DUP1 PUSH4 0xBADDAEB8 EQ PUSH2 0xF9 JUMPI JUMPDEST PUSH1 0x0 DUP1 REVERT JUMPDEST PUSH2 0xA0 PUSH2 0x9B CALLDATASIZE PUSH1 0x4 PUSH2 0x878 JUMP JUMPDEST PUSH2 0x166 JUMP JUMPDEST PUSH1 0x40 MLOAD PUSH2 0xAD SWAP2 SWAP1 PUSH2 0x89A JUMP JUMPDEST PUSH1 0x40 MLOAD DUP1 SWAP2 SUB SWAP1 RETURN JUMPDEST PUSH2 0xC9 PUSH2 0xC4 CALLDATASIZE PUSH1 0x4 PUSH2 0x8DE JUMP JUMPDEST PUSH2 0x1D2 JUMP JUMPDEST PUSH1 0x40 MLOAD SWAP1 DUP2 MSTORE PUSH1 0x20 ADD PUSH2 0xAD JUMP JUMPDEST PUSH2 0xEA PUSH2 0xE5 CALLDATASIZE PUSH1 0x4 PUSH2 0x908 JUMP JUMPDEST PUSH2 0x203 JUMP JUMPDEST PUSH1 0x40 MLOAD PUSH2 0xAD SWAP4 SWAP3 SWAP2 SWAP1 PUSH2 0x967 JUMP JUMPDEST PUSH2 0xC9 PUSH2 0x107 CALLDATASIZE PUSH1 0x4 PUSH2 0x908 JUMP JUMPDEST PUSH2 0x473 JUMP JUMPDEST PUSH2 0x11F PUSH2 0x11A CALLDATASIZE PUSH1 0x4 PUSH2 0xA4D JUMP JUMPDEST PUSH2 0x494 JUMP JUMPDEST STOP JUMPDEST PUSH2 0x11F PUSH2 0x12F CALLDATASIZE PUSH1 0x4 PUSH2 0xA94 JUMP JUMPDEST PUSH2 0x650 JUMP JUMPDEST PUSH1 0x0 SLOAD PUSH2 0x141 SWAP1 PUSH1 0x58 SHL DUP2 JUMP JUMPDEST PUSH1 0x40 MLOAD PUSH11 0xFFFFFFFFFFFFFFFFFFFFFF NOT SWAP1 SWAP2 AND DUP2 MSTORE PUSH1 0x20 ADD PUSH2 0xAD JUMP JUMPDEST PUSH2 0xA0 PUSH2 0x804 JUMP JUMPDEST PUSH1 0x1 PUSH1 0x1 PUSH1 0xA0 SHL SUB DUP2 AND PUSH1 0x0 SWAP1 DUP2 MSTORE PUSH1 0x3 PUSH1 0x20 SWAP1 DUP2 MSTORE PUSH1 0x40 SWAP2 DUP3 SWAP1 KECCAK256 DUP1 SLOAD DUP4 MLOAD DUP2 DUP5 MUL DUP2 ADD DUP5 ADD SWAP1 SWAP5 MSTORE DUP1 DUP5 MSTORE PUSH1 0x60 SWAP4 SWAP3 DUP4 ADD DUP3 DUP3 DUP1 ISZERO PUSH2 0x1C6 JUMPI PUSH1 0x20 MUL DUP3 ADD SWAP2 SWAP1 PUSH1 0x0 MSTORE PUSH1 0x20 PUSH1 0x0 KECCAK256 SWAP1 JUMPDEST DUP2 SLOAD DUP2 MSTORE PUSH1 0x20 ADD SWAP1 PUSH1 0x1 ADD SWAP1 DUP1 DUP4 GT PUSH2 0x1B2 JUMPI JUMPDEST POP POP POP POP POP SWAP1 POP SWAP2 SWAP1 POP JUMP JUMPDEST PUSH1 0x3 PUSH1 0x20 MSTORE DUP2 PUSH1 0x0 MSTORE PUSH1 0x40 PUSH1 0x0 KECCAK256 DUP2 DUP2 SLOAD DUP2 LT PUSH2 0x1EE JUMPI PUSH1 0x0 DUP1 REVERT JUMPDEST SWAP1 PUSH1 0x0 MSTORE PUSH1 0x20 PUSH1 0x0 KECCAK256 ADD PUSH1 0x0 SWAP2 POP SWAP2 POP POP SLOAD DUP2 JUMP JUMPDEST PUSH1 0x60 DUP1 PUSH1 0x60 PUSH1 0x1 DUP1 SLOAD SWAP1 POP DUP5 LT PUSH2 0x256 JUMPI PUSH1 0x40 MLOAD PUSH3 0x461BCD PUSH1 0xE5 SHL DUP2 MSTORE PUSH1 0x20 PUSH1 0x4 DUP3 ADD MSTORE PUSH1 0x12 PUSH1 0x24 DUP3 ADD MSTORE PUSH18 0x125B9D985B1A59081B595CDCD859D9481251 PUSH1 0x72 SHL PUSH1 0x44 DUP3 ADD MSTORE PUSH1 0x64 ADD JUMPDEST PUSH1 0x40 MLOAD DUP1 SWAP2 SUB SWAP1 REVERT JUMPDEST PUSH1 0x1 DUP5 DUP2 SLOAD DUP2 LT PUSH2 0x269 JUMPI PUSH2 0x269 PUSH2 0xAEE JUMP JUMPDEST SWAP1 PUSH1 0x0 MSTORE PUSH1 0x20 PUSH1 0x0 KECCAK256 SWAP1 PUSH1 0x4 MUL ADD PUSH1 0x0 ADD PUSH1 0x1 DUP6 DUP2 SLOAD DUP2 LT PUSH2 0x28D JUMPI PUSH2 0x28D PUSH2 0xAEE JUMP JUMPDEST SWAP1 PUSH1 0x0 MSTORE PUSH1 0x20 PUSH1 0x0 KECCAK256 SWAP1 PUSH1 0x4 MUL ADD PUSH1 0x2 ADD PUSH1 0x1 DUP7 DUP2 SLOAD DUP2 LT PUSH2 0x2B1 JUMPI PUSH2 0x2B1 PUSH2 0xAEE JUMP JUMPDEST SWAP1 PUSH1 0x0 MSTORE PUSH1 0x20 PUSH1 0x0 KECCAK256 SWAP1 PUSH1 0x4 MUL ADD PUSH1 0x1 ADD DUP3 DUP1 SLOAD PUSH2 0x2CE SWAP1 PUSH2 0xB04 JUMP JUMPDEST DUP1 PUSH1 0x1F ADD PUSH1 0x20 DUP1 SWAP2 DIV MUL PUSH1 0x20 ADD PUSH1 0x40 MLOAD SWAP1 DUP2 ADD PUSH1 0x40 MSTORE DUP1 SWAP3 SWAP2 SWAP1 DUP2 DUP2 MSTORE PUSH1 0x20 ADD DUP3 DUP1 SLOAD PUSH2 0x2FA SWAP1 PUSH2 0xB04 JUMP JUMPDEST DUP1 ISZERO PUSH2 0x347 JUMPI DUP1 PUSH1 0x1F LT PUSH2 0x31C JUMPI PUSH2 0x100 DUP1 DUP4 SLOAD DIV MUL DUP4 MSTORE SWAP2 PUSH1 0x20 ADD SWAP2 PUSH2 0x347 JUMP JUMPDEST DUP3 ADD SWAP2 SWAP1 PUSH1 0x0 MSTORE PUSH1 0x20 PUSH1 0x0 KECCAK256 SWAP1 JUMPDEST DUP2 SLOAD DUP2 MSTORE SWAP1 PUSH1 0x1 ADD SWAP1 PUSH1 0x20 ADD DUP1 DUP4 GT PUSH2 0x32A JUMPI DUP3 SWAP1 SUB PUSH1 0x1F AND DUP3 ADD SWAP2 JUMPDEST POP POP POP POP POP SWAP3 POP DUP2 DUP1 SLOAD PUSH2 0x35A SWAP1 PUSH2 0xB04 JUMP JUMPDEST DUP1 PUSH1 0x1F ADD PUSH1 0x20 DUP1 SWAP2 DIV MUL PUSH1 0x20 ADD PUSH1 0x40 MLOAD SWAP1 DUP2 ADD PUSH1 0x40 MSTORE DUP1 SWAP3 SWAP2 SWAP1 DUP2 DUP2 MSTORE PUSH1 0x20 ADD DUP3 DUP1 SLOAD PUSH2 0x386 SWAP1 PUSH2 0xB04 JUMP JUMPDEST DUP1 ISZERO PUSH2 0x3D3 JUMPI DUP1 PUSH1 0x1F LT PUSH2 0x3A8 JUMPI PUSH2 0x100 DUP1 DUP4 SLOAD DIV MUL DUP4 MSTORE SWAP2 PUSH1 0x20 ADD SWAP2 PUSH2 0x3D3 JUMP JUMPDEST DUP3 ADD SWAP2 SWAP1 PUSH1 0x0 MSTORE PUSH1 0x20 PUSH1 0x0 KECCAK256 SWAP1 JUMPDEST DUP2 SLOAD DUP2 MSTORE SWAP1 PUSH1 0x1 ADD SWAP1 PUSH1 0x20 ADD DUP1 DUP4 GT PUSH2 0x3B6 JUMPI DUP3 SWAP1 SUB PUSH1 0x1F AND DUP3 ADD SWAP2 JUMPDEST POP POP POP POP POP SWAP2 POP DUP1 DUP1 SLOAD PUSH2 0x3E6 SWAP1 PUSH2 0xB04 JUMP JUMPDEST DUP1 PUSH1 0x1F ADD PUSH1 0x20 DUP1 SWAP2 DIV MUL PUSH1 0x20 ADD PUSH1 0x40 MLOAD SWAP1 DUP2 ADD PUSH1 0x40 MSTORE DUP1 SWAP3 SWAP2 SWAP1 DUP2 DUP2 MSTORE PUSH1 0x20 ADD DUP3 DUP1 SLOAD PUSH2 0x412 SWAP1 PUSH2 0xB04 JUMP JUMPDEST DUP1 ISZERO PUSH2 0x45F JUMPI DUP1 PUSH1 0x1F LT PUSH2 0x434 JUMPI PUSH2 0x100 DUP1 DUP4 SLOAD DIV MUL DUP4 MSTORE SWAP2 PUSH1 0x20 ADD SWAP2 PUSH2 0x45F JUMP JUMPDEST DUP3 ADD SWAP2 SWAP1 PUSH1 0x0 MSTORE PUSH1 0x20 PUSH1 0x0 KECCAK256 SWAP1 JUMPDEST DUP2 SLOAD DUP2 MSTORE SWAP1 PUSH1 0x1 ADD SWAP1 PUSH1 0x20 ADD DUP1 DUP4 GT PUSH2 0x442 JUMPI DUP3 SWAP1 SUB PUSH1 0x1F AND DUP3 ADD SWAP2 JUMPDEST POP POP POP POP POP SWAP1 POP SWAP3 POP SWAP3 POP SWAP3 POP SWAP2 SWAP4 SWAP1 SWAP3 POP JUMP JUMPDEST PUSH1 0x2 DUP2 DUP2 SLOAD DUP2 LT PUSH2 0x483 JUMPI PUSH1 0x0 DUP1 REVERT JUMPDEST PUSH1 0x0 SWAP2 DUP3 MSTORE PUSH1 0x20 SWAP1 SWAP2 KECCAK256 ADD SLOAD SWAP1 POP DUP2 JUMP JUMPDEST PUSH1 0x1 SLOAD DUP3 LT PUSH2 0x4DA JUMPI PUSH1 0x40 MLOAD PUSH3 0x461BCD PUSH1 0xE5 SHL DUP2 MSTORE PUSH1 0x20 PUSH1 0x4 DUP3 ADD MSTORE PUSH1 0x12 PUSH1 0x24 DUP3 ADD MSTORE PUSH18 0x125B9D985B1A59081B595CDCD859D9481251 PUSH1 0x72 SHL PUSH1 0x44 DUP3 ADD MSTORE PUSH1 0x64 ADD PUSH2 0x24D JUMP JUMPDEST PUSH1 0x40 MLOAD DUP1 PUSH1 0x40 ADD PUSH1 0x40 MSTORE DUP1 PUSH1 0x4 DUP2 MSTORE PUSH1 0x20 ADD PUSH4 0x446F6E65 PUSH1 0xE0 SHL DUP2 MSTORE POP PUSH1 0x1 DUP4 DUP2 SLOAD DUP2 LT PUSH2 0x50A JUMPI PUSH2 0x50A PUSH2 0xAEE JUMP JUMPDEST SWAP1 PUSH1 0x0 MSTORE PUSH1 0x20 PUSH1 0x0 KECCAK256 SWAP1 PUSH1 0x4 MUL ADD PUSH1 0x3 ADD SWAP1 DUP2 PUSH2 0x527 SWAP2 SWAP1 PUSH2 0xB8D JUMP JUMPDEST POP DUP1 PUSH1 0x1 DUP4 DUP2 SLOAD DUP2 LT PUSH2 0x53C JUMPI PUSH2 0x53C PUSH2 0xAEE JUMP JUMPDEST SWAP1 PUSH1 0x0 MSTORE PUSH1 0x20 PUSH1 0x0 KECCAK256 SWAP1 PUSH1 0x4 MUL ADD PUSH1 0x1 ADD SWAP1 DUP2 PUSH2 0x559 SWAP2 SWAP1 PUSH2 0xB8D JUMP JUMPDEST POP PUSH1 0x0 JUMPDEST PUSH1 0x2 SLOAD DUP2 LT ISZERO PUSH2 0x613 JUMPI DUP3 PUSH1 0x2 DUP3 DUP2 SLOAD DUP2 LT PUSH2 0x57B JUMPI PUSH2 0x57B PUSH2 0xAEE JUMP JUMPDEST SWAP1 PUSH1 0x0 MSTORE PUSH1 0x20 PUSH1 0x0 KECCAK256 ADD SLOAD SUB PUSH2 0x601 JUMPI PUSH1 0x2 DUP1 SLOAD PUSH2 0x59B SWAP1 PUSH1 0x1 SWAP1 PUSH2 0xC63 JUMP JUMPDEST DUP2 SLOAD DUP2 LT PUSH2 0x5AB JUMPI PUSH2 0x5AB PUSH2 0xAEE JUMP JUMPDEST SWAP1 PUSH1 0x0 MSTORE PUSH1 0x20 PUSH1 0x0 KECCAK256 ADD SLOAD PUSH1 0x2 DUP3 DUP2 SLOAD DUP2 LT PUSH2 0x5C9 JUMPI PUSH2 0x5C9 PUSH2 0xAEE JUMP JUMPDEST PUSH1 0x0 SWAP2 DUP3 MSTORE PUSH1 0x20 SWAP1 SWAP2 KECCAK256 ADD SSTORE PUSH1 0x2 DUP1 SLOAD DUP1 PUSH2 0x5E6 JUMPI PUSH2 0x5E6 PUSH2 0xC7C JUMP JUMPDEST PUSH1 0x1 SWAP1 SUB DUP2 DUP2 SWAP1 PUSH1 0x0 MSTORE PUSH1 0x20 PUSH1 0x0 KECCAK256 ADD PUSH1 0x0 SWAP1 SSTORE SWAP1 SSTORE PUSH2 0x613 JUMP JUMPDEST DUP1 PUSH2 0x60B DUP2 PUSH2 0xC92 JUMP JUMPDEST SWAP2 POP POP PUSH2 0x55D JUMP JUMPDEST POP DUP2 PUSH32 0xFB74DA3AA519F9BDBD6F2B6CEEA081A1654B10AC18CD45077A51ED225BD89D9A DUP3 PUSH1 0x40 MLOAD PUSH2 0x644 SWAP2 SWAP1 PUSH2 0xCAB JUMP JUMPDEST PUSH1 0x40 MLOAD DUP1 SWAP2 SUB SWAP1 LOG2 POP POP JUMP JUMPDEST PUSH1 0x0 DUP3 MLOAD GT DUP1 ISZERO PUSH2 0x664 JUMPI POP PUSH2 0x118 DUP3 MLOAD GT ISZERO JUMPDEST PUSH2 0x6A1 JUMPI PUSH1 0x40 MLOAD PUSH3 0x461BCD PUSH1 0xE5 SHL DUP2 MSTORE PUSH1 0x20 PUSH1 0x4 DUP3 ADD MSTORE PUSH1 0xE PUSH1 0x24 DUP3 ADD MSTORE PUSH14 0x125B9D985B1A59081C1C9BDB5C1D PUSH1 0x92 SHL PUSH1 0x44 DUP3 ADD MSTORE PUSH1 0x64 ADD PUSH2 0x24D JUMP JUMPDEST PUSH1 0x1 DUP1 SLOAD PUSH1 0x40 DUP1 MLOAD PUSH1 0x80 DUP2 ADD DUP3 MSTORE DUP6 DUP2 MSTORE DUP2 MLOAD PUSH1 0x20 DUP2 DUP2 ADD DUP5 MSTORE PUSH1 0x0 DUP1 DUP4 MSTORE DUP2 DUP5 ADD SWAP3 SWAP1 SWAP3 MSTORE DUP3 DUP5 ADD DUP8 SWAP1 MSTORE DUP4 MLOAD DUP1 DUP6 ADD SWAP1 SWAP5 MSTORE PUSH1 0xA DUP5 MSTORE PUSH10 0x50726F63657373696E67 PUSH1 0xB0 SHL SWAP1 DUP5 ADD MSTORE PUSH1 0x60 DUP3 ADD SWAP3 SWAP1 SWAP3 MSTORE DUP3 DUP5 ADD DUP5 SSTORE SWAP3 SWAP1 MSTORE DUP2 MLOAD SWAP1 SWAP2 SWAP1 PUSH1 0x4 DUP4 MUL PUSH32 0xB10E2D527612073B26EECDFD717E6A320CF44B4AFAC2B0732D9FCBE2B7FA0CF6 ADD SWAP1 DUP2 SWAP1 PUSH2 0x733 SWAP1 DUP3 PUSH2 0xB8D JUMP JUMPDEST POP PUSH1 0x20 DUP3 ADD MLOAD PUSH1 0x1 DUP3 ADD SWAP1 PUSH2 0x748 SWAP1 DUP3 PUSH2 0xB8D JUMP JUMPDEST POP PUSH1 0x40 DUP3 ADD MLOAD PUSH1 0x2 DUP3 ADD SWAP1 PUSH2 0x75D SWAP1 DUP3 PUSH2 0xB8D JUMP JUMPDEST POP PUSH1 0x60 DUP3 ADD MLOAD PUSH1 0x3 DUP3 ADD SWAP1 PUSH2 0x772 SWAP1 DUP3 PUSH2 0xB8D JUMP JUMPDEST POP POP CALLER PUSH1 0x0 DUP2 DUP2 MSTORE PUSH1 0x3 PUSH1 0x20 SWAP1 DUP2 MSTORE PUSH1 0x40 DUP1 DUP4 KECCAK256 DUP1 SLOAD PUSH1 0x1 DUP1 DUP3 ADD DUP4 SSTORE SWAP2 DUP6 MSTORE DUP4 DUP6 KECCAK256 ADD DUP8 SWAP1 SSTORE PUSH1 0x2 DUP1 SLOAD SWAP2 DUP3 ADD DUP2 SSTORE SWAP1 SWAP4 MSTORE PUSH32 0x405787FA12A823E0F2B7631CC41B3BA8828B3321CA811111FA75CD3AA3BB5ACE SWAP1 SWAP3 ADD DUP6 SWAP1 SSTORE SWAP1 MLOAD DUP5 DUP2 MSTORE SWAP2 SWAP3 POP PUSH32 0xF94B406E4A887D40EEED920C1D145A8F1279EA71AF35BFFBD9862C4FB0C3FA9D SWAP2 ADD PUSH1 0x40 MLOAD DUP1 SWAP2 SUB SWAP1 LOG2 POP POP POP JUMP JUMPDEST PUSH1 0x60 PUSH1 0x2 DUP1 SLOAD DUP1 PUSH1 0x20 MUL PUSH1 0x20 ADD PUSH1 0x40 MLOAD SWAP1 DUP2 ADD PUSH1 0x40 MSTORE DUP1 SWAP3 SWAP2 SWAP1 DUP2 DUP2 MSTORE PUSH1 0x20 ADD DUP3 DUP1 SLOAD DUP1 ISZERO PUSH2 0x852 JUMPI PUSH1 0x20 MUL DUP3 ADD SWAP2 SWAP1 PUSH1 0x0 MSTORE PUSH1 0x20 PUSH1 0x0 KECCAK256 SWAP1 JUMPDEST DUP2 SLOAD DUP2 MSTORE PUSH1 0x20 ADD SWAP1 PUSH1 0x1 ADD SWAP1 DUP1 DUP4 GT PUSH2 0x83E JUMPI JUMPDEST POP POP POP POP POP SWAP1 POP SWAP1 JUMP JUMPDEST DUP1 CALLDATALOAD PUSH1 0x1 PUSH1 0x1 PUSH1 0xA0 SHL SUB DUP2 AND DUP2 EQ PUSH2 0x873 JUMPI PUSH1 0x0 DUP1 REVERT JUMPDEST SWAP2 SWAP1 POP JUMP JUMPDEST PUSH1 0x0 PUSH1 0x20 DUP3 DUP5 SUB SLT ISZERO PUSH2 0x88A JUMPI PUSH1 0x0 DUP1 REVERT JUMPDEST PUSH2 0x893 DUP3 PUSH2 0x85C JUMP JUMPDEST SWAP4 SWAP3 POP POP POP JUMP JUMPDEST PUSH1 0x20 DUP1 DUP3 MSTORE DUP3 MLOAD DUP3 DUP3 ADD DUP2 SWAP1 MSTORE PUSH1 0x0 SWAP2 SWAP1 DUP5 DUP3 ADD SWAP1 PUSH1 0x40 DUP6 ADD SWAP1 DUP5 JUMPDEST DUP2 DUP2 LT ISZERO PUSH2 0x8D2 JUMPI DUP4 MLOAD DUP4 MSTORE SWAP3 DUP5 ADD SWAP3 SWAP2 DUP5 ADD SWAP2 PUSH1 0x1 ADD PUSH2 0x8B6 JUMP JUMPDEST POP SWAP1 SWAP7 SWAP6 POP POP POP POP POP POP JUMP JUMPDEST PUSH1 0x0 DUP1 PUSH1 0x40 DUP4 DUP6 SUB SLT ISZERO PUSH2 0x8F1 JUMPI PUSH1 0x0 DUP1 REVERT JUMPDEST PUSH2 0x8FA DUP4 PUSH2 0x85C JUMP JUMPDEST SWAP5 PUSH1 0x20 SWAP4 SWAP1 SWAP4 ADD CALLDATALOAD SWAP4 POP POP POP JUMP JUMPDEST PUSH1 0x0 PUSH1 0x20 DUP3 DUP5 SUB SLT ISZERO PUSH2 0x91A JUMPI PUSH1 0x0 DUP1 REVERT JUMPDEST POP CALLDATALOAD SWAP2 SWAP1 POP JUMP JUMPDEST PUSH1 0x0 DUP2 MLOAD DUP1 DUP5 MSTORE PUSH1 0x0 JUMPDEST DUP2 DUP2 LT ISZERO PUSH2 0x947 JUMPI PUSH1 0x20 DUP2 DUP6 ADD DUP2 ADD MLOAD DUP7 DUP4 ADD DUP3 ADD MSTORE ADD PUSH2 0x92B JUMP JUMPDEST POP PUSH1 0x0 PUSH1 0x20 DUP3 DUP7 ADD ADD MSTORE PUSH1 0x20 PUSH1 0x1F NOT PUSH1 0x1F DUP4 ADD AND DUP6 ADD ADD SWAP2 POP POP SWAP3 SWAP2 POP POP JUMP JUMPDEST PUSH1 0x60 DUP2 MSTORE PUSH1 0x0 PUSH2 0x97A PUSH1 0x60 DUP4 ADD DUP7 PUSH2 0x921 JUMP JUMPDEST DUP3 DUP2 SUB PUSH1 0x20 DUP5 ADD MSTORE PUSH2 0x98C DUP2 DUP7 PUSH2 0x921 JUMP JUMPDEST SWAP1 POP DUP3 DUP2 SUB PUSH1 0x40 DUP5 ADD MSTORE PUSH2 0x9A0 DUP2 DUP6 PUSH2 0x921 JUMP JUMPDEST SWAP7 SWAP6 POP POP POP POP POP POP JUMP JUMPDEST PUSH4 0x4E487B71 PUSH1 0xE0 SHL PUSH1 0x0 MSTORE PUSH1 0x41 PUSH1 0x4 MSTORE PUSH1 0x24 PUSH1 0x0 REVERT JUMPDEST PUSH1 0x0 DUP3 PUSH1 0x1F DUP4 ADD SLT PUSH2 0x9D1 JUMPI PUSH1 0x0 DUP1 REVERT JUMPDEST DUP2 CALLDATALOAD PUSH8 0xFFFFFFFFFFFFFFFF DUP1 DUP3 GT ISZERO PUSH2 0x9EC JUMPI PUSH2 0x9EC PUSH2 0x9AA JUMP JUMPDEST PUSH1 0x40 MLOAD PUSH1 0x1F DUP4 ADD PUSH1 0x1F NOT SWAP1 DUP2 AND PUSH1 0x3F ADD AND DUP2 ADD SWAP1 DUP3 DUP3 GT DUP2 DUP4 LT OR ISZERO PUSH2 0xA14 JUMPI PUSH2 0xA14 PUSH2 0x9AA JUMP JUMPDEST DUP2 PUSH1 0x40 MSTORE DUP4 DUP2 MSTORE DUP7 PUSH1 0x20 DUP6 DUP9 ADD ADD GT ISZERO PUSH2 0xA2D JUMPI PUSH1 0x0 DUP1 REVERT JUMPDEST DUP4 PUSH1 0x20 DUP8 ADD PUSH1 0x20 DUP4 ADD CALLDATACOPY PUSH1 0x0 PUSH1 0x20 DUP6 DUP4 ADD ADD MSTORE DUP1 SWAP5 POP POP POP POP POP SWAP3 SWAP2 POP POP JUMP JUMPDEST PUSH1 0x0 DUP1 PUSH1 0x40 DUP4 DUP6 SUB SLT ISZERO PUSH2 0xA60 JUMPI PUSH1 0x0 DUP1 REVERT JUMPDEST DUP3 CALLDATALOAD SWAP2 POP PUSH1 0x20 DUP4 ADD CALLDATALOAD PUSH8 0xFFFFFFFFFFFFFFFF DUP2 GT ISZERO PUSH2 0xA7E JUMPI PUSH1 0x0 DUP1 REVERT JUMPDEST PUSH2 0xA8A DUP6 DUP3 DUP7 ADD PUSH2 0x9C0 JUMP JUMPDEST SWAP2 POP POP SWAP3 POP SWAP3 SWAP1 POP JUMP JUMPDEST PUSH1 0x0 DUP1 PUSH1 0x40 DUP4 DUP6 SUB SLT ISZERO PUSH2 0xAA7 JUMPI PUSH1 0x0 DUP1 REVERT JUMPDEST DUP3 CALLDATALOAD PUSH8 0xFFFFFFFFFFFFFFFF DUP1 DUP3 GT ISZERO PUSH2 0xABF JUMPI PUSH1 0x0 DUP1 REVERT JUMPDEST PUSH2 0xACB DUP7 DUP4 DUP8 ADD PUSH2 0x9C0 JUMP JUMPDEST SWAP4 POP PUSH1 0x20 DUP6 ADD CALLDATALOAD SWAP2 POP DUP1 DUP3 GT ISZERO PUSH2 0xAE1 JUMPI PUSH1 0x0 DUP1 REVERT JUMPDEST POP PUSH2 0xA8A DUP6 DUP3 DUP7 ADD PUSH2 0x9C0 JUMP JUMPDEST PUSH4 0x4E487B71 PUSH1 0xE0 SHL PUSH1 0x0 MSTORE PUSH1 0x32 PUSH1 0x4 MSTORE PUSH1 0x24 PUSH1 0x0 REVERT JUMPDEST PUSH1 0x1 DUP2 DUP2 SHR SWAP1 DUP3 AND DUP1 PUSH2 0xB18 JUMPI PUSH1 0x7F DUP3 AND SWAP2 POP JUMPDEST PUSH1 0x20 DUP3 LT DUP2 SUB PUSH2 0xB38 JUMPI PUSH4 0x4E487B71 PUSH1 0xE0 SHL PUSH1 0x0 MSTORE PUSH1 0x22 PUSH1 0x4 MSTORE PUSH1 0x24 PUSH1 0x0 REVERT JUMPDEST POP SWAP2 SWAP1 POP JUMP JUMPDEST PUSH1 0x1F DUP3 GT ISZERO PUSH2 0xB88 JUMPI PUSH1 0x0 DUP2 DUP2 MSTORE PUSH1 0x20 DUP2 KECCAK256 PUSH1 0x1F DUP6 ADD PUSH1 0x5 SHR DUP2 ADD PUSH1 0x20 DUP7 LT ISZERO PUSH2 0xB65 JUMPI POP DUP1 JUMPDEST PUSH1 0x1F DUP6 ADD PUSH1 0x5 SHR DUP3 ADD SWAP2 POP JUMPDEST DUP2 DUP2 LT ISZERO PUSH2 0xB84 JUMPI DUP3 DUP2 SSTORE PUSH1 0x1 ADD PUSH2 0xB71 JUMP JUMPDEST POP POP POP JUMPDEST POP POP POP JUMP JUMPDEST DUP2 MLOAD PUSH8 0xFFFFFFFFFFFFFFFF DUP2 GT ISZERO PUSH2 0xBA7 JUMPI PUSH2 0xBA7 PUSH2 0x9AA JUMP JUMPDEST PUSH2 0xBBB DUP2 PUSH2 0xBB5 DUP5 SLOAD PUSH2 0xB04 JUMP JUMPDEST DUP5 PUSH2 0xB3E JUMP JUMPDEST PUSH1 0x20 DUP1 PUSH1 0x1F DUP4 GT PUSH1 0x1 DUP2 EQ PUSH2 0xBF0 JUMPI PUSH1 0x0 DUP5 ISZERO PUSH2 0xBD8 JUMPI POP DUP6 DUP4 ADD MLOAD JUMPDEST PUSH1 0x0 NOT PUSH1 0x3 DUP7 SWAP1 SHL SHR NOT AND PUSH1 0x1 DUP6 SWAP1 SHL OR DUP6 SSTORE PUSH2 0xB84 JUMP JUMPDEST PUSH1 0x0 DUP6 DUP2 MSTORE PUSH1 0x20 DUP2 KECCAK256 PUSH1 0x1F NOT DUP7 AND SWAP2 JUMPDEST DUP3 DUP2 LT ISZERO PUSH2 0xC1F JUMPI DUP9 DUP7 ADD MLOAD DUP3 SSTORE SWAP5 DUP5 ADD SWAP5 PUSH1 0x1 SWAP1 SWAP2 ADD SWAP1 DUP5 ADD PUSH2 0xC00 JUMP JUMPDEST POP DUP6 DUP3 LT ISZERO PUSH2 0xC3D JUMPI DUP8 DUP6 ADD MLOAD PUSH1 0x0 NOT PUSH1 0x3 DUP9 SWAP1 SHL PUSH1 0xF8 AND SHR NOT AND DUP2 SSTORE JUMPDEST POP POP POP POP POP PUSH1 0x1 SWAP1 DUP2 SHL ADD SWAP1 SSTORE POP JUMP JUMPDEST PUSH4 0x4E487B71 PUSH1 0xE0 SHL PUSH1 0x0 MSTORE PUSH1 0x11 PUSH1 0x4 MSTORE PUSH1 0x24 PUSH1 0x0 REVERT JUMPDEST DUP2 DUP2 SUB DUP2 DUP2 GT ISZERO PUSH2 0xC76 JUMPI PUSH2 0xC76 PUSH2 0xC4D JUMP JUMPDEST SWAP3 SWAP2 POP POP JUMP JUMPDEST PUSH4 0x4E487B71 PUSH1 0xE0 SHL PUSH1 0x0 MSTORE PUSH1 0x31 PUSH1 0x4 MSTORE PUSH1 0x24 PUSH1 0x0 REVERT JUMPDEST PUSH1 0x0 PUSH1 0x1 DUP3 ADD PUSH2 0xCA4 JUMPI PUSH2 0xCA4 PUSH2 0xC4D JUMP JUMPDEST POP PUSH1 0x1 ADD SWAP1 JUMP JUMPDEST PUSH1 0x20 DUP2 MSTORE PUSH1 0x0 PUSH2 0x893 PUSH1 0x20 DUP4 ADD DUP5 PUSH2 0x921 JUMP INVALID LOG2 PUSH5 0x6970667358 0x22 SLT KECCAK256 0xF7 ADDRESS 0xE2 PUSH28 0xFEA57DA6AA68E186EDAB34EDDB9A7621B36AA057ACC35738547E9087 PUSH5 0x736F6C6343 STOP ADDMOD EQ STOP CALLER "},"methodIdentifiers":{"getMessage(uint256)":"86f79edb","getProcessingMessages()":"feb8b90f","getUserHistory(address)":"4fb3d3b1","history(address,uint256)":"7718f4ec","processPrompt(string,string)":"e748e781","processingMessages(uint256)":"baddaeb8","roflAppID()":"efae93df","submitAgentReply(uint256,string)":"c44adfa8"}}}}}